:10000000009E00000003000010B40000000000008B
:1000100000000000000000000000000000000000E0
:10002000801878FFE4B8200118F6D8F99000007F16
:10003000007E07E4F0A3DFFCDEFA758120022DCB01
:100040001212D5502474732B12149FE0701B74731A
:100050002BF582E4340312117D25E025E02476F5AA
:1000600082E43403F583122642220002283BEFD3B8
:100070009403500D12124CF583E5822D1210D4E436
:10008000F02200022F5B75F00212267FE0FCA3E055
:10009000FD75F09AEFA42445F582E5F03400F58370
:1000A000EE75F00202267F25E025E02476F582E455
:1000B0003403F583E0F8A3E0F9A3E0FAA3E0FB90B2
:1000C0000382E0FCA3E0FDA3E0FEA3E0C39BFBEE04
:1000D0009AFAED99F9EC98F8229004B0E0FF9004B8
:1000E000AFE0FE75F09AA424A8F582E5F03400F59F
:1000F00083E5822FF582E43583F58322EF2466FFC2
:10010000EE34FEFE7C007D0A12259E7D321225B063
:10011000EF249AFFEE3401FEEB75F002A42427F5DC
:1001200082E5F03400F583229004B1E0FEA3E0FF05
:100130009004AFE0FD75F09AA4247BF582E5F034DD
:1001400000F58322E0FCA3E0FDEF75F09AA42457AC
:10015000F582E5F0340022F583E493FC740193FD0D
:1001600075F002EFA42407F582E5F03402F583EC84
:10017000F0A3EDF09004A1E02275F002EBA4241BA3
:10018000F582E5F03400F583E0FCA3E0FDEB75F0CB
:1001900002A42415F582E5F03400F58322F583747A
:1001A00001F0900382E0FCA3E0FDA3E0FEA3E0FFEA
:1001B000EB22E025E0243FF582E4341CF583E49350
:1001C000FE740193FFE4FCFDC3022631F583E49342
:1001D000FC740193FD75F002EFA422C39DFFEE9C19
:1001E000FEE075F09AA42469F582E5F03400F58309
:1001F000229004AFE0FF75F09AA42433F582E5F075
:100200003400F5832275F09AA4248DF582E5F0344C
:1002100000F583EC75F00202267F9004AFE0FF75D5
:10022000F09AA42445F582E5F03400F58322E044F9
:1002300001F0E4900014F090037222F0A3F0A3F018
:10024000A3F0A3F0A3F0A3229004AFE0FD75F09A11
:10025000A4248DF582E5F03400F58322EB75F002DD
:10026000A42421F582E5F03400F58322EF75F0092E
:10027000A42488F582E4340322EF75F009A424EB6A
:10028000F582E43402229004B0E0FF9004AFE07500
:10029000F09AA4249FF582E5F0340022E4F075F092
:1002A0009AEEA424B1F582E5F0340022902EC9F034
:1002B0007408902E4FF0902EC3229004AFE0FFA35D
:1002C000E0FD229004A2E02413F582E43402F583D9
:1002D00022F07404902E4EF0902EC3229004B3E0CE
:1002E000FDEF9D7480F86E9822902E4FF0902EC3F3
:1002F000748022EDF0CBEFCBEBD394032275F09A10
:10030000EEA424CCF582E5F034002274192EF58297
:10031000E43402F5832275F002EF12267FE0FCA39D
:10032000E0FD75F09A22E0FEA3E0FFD3940AEE64AC
:1003300080948022E04406F09000147401F022754D
:10034000F002EBA4241BF582E5F03400F58322E0F3
:10035000FF25E024A3F582E43404F58322E0249F02
:10036000F582E43400F583E0640122EF25E024A95E
:10037000F582E43404F58322900013E0FF9004A199
:10038000E0C39F22E4F0A3F075F09A222401F582E5
:10039000E5F0340222240DF582E5F0340222F583E3
:1003A000E4F07F0122E4900498F090022A7402F0B5
:1003B00022EE8FF012260575F09AED22E0FEA3E002
:1003C000C39D22C3EF94F6EE6480947F22F583E010
:1003D000FCA3E0FD75F00222900418E054F0F02236
:1003E000E490021DF09002E4F022242DF582E5F065
:1003F00034002275F024A424A3F582E43403F583A9
:100400002275F024A42406F582E43403F5832290B7
:1004100004AFE0FFA3E0FD22A424A8F582E5F034B8
:1004200000F583E58222F0741A2EF582E43402F599
:1004300083E4F02275F00402267FE0FF9004A4E03C
:10044000FEEFC8EEC80822E0FCA3E0FDEC2275F048
:1004500002EF12267FECF0A3EDF022F582E43402E5
:10046000F5832225E025E024A5F582E4340222F577
:1004700082E43402F5832225E025E0244EF582E46F
:10048000340222F582E43402F5832225E025E024BB
:100490002FF582E4340222F582E43400F58322252C
:1004A000E025E02406F582E4340022F582E43402FB
:1004B000F5832225E025E02499F582E4340222F533
:1004C00082E43403F58322902EC5E4F0902ECDF023
:1004D000A3F022F582E43402F58322E0FEA3E0FFDC
:1004E000D3949AEE940122E02416F582E43402F5C6
:1004F0008322902EC6F0902EC57401F022902EC952
:100500007428F022ECF0A3EDF09004AFE022900408
:10051000A2E004F0229004A2E0FF75F002A422F011
:1005200090021EF09002E5F022900418E0440A22A6
:10053000E0FEA3E0FFC3EE940422E49004A2F09056
:1005400004A2E0FFC3940940030217C8EF902EC82D
:100550007014E0545FF0A3746AF0902EC3744AF0F4
:10056000A37401F0800BE044F01212CCF0A37407E6
:10057000F09004A2E0901C3693902ECAF0E4900410
:10058000A1F0900013E0FF9004A1E0FEC39F4003A0
:100590000217BF74E82E1214B3E0FF9004A4F0E435
:1005A000F5E2EFC39408503B74151214D2C083C017
:1005B0008212141A8002C333D8FCD082D083F09008
:1005C0002ECD7401F0C083C082E0FFC8EEC8088061
:1005D00002C333D8FCD082D083F0902EC074C1F017
:1005E0000217389004A4E024F8F074161214D2C054
:1005F00083C08212141A8002C333D8FCD082D08305
:10060000F0902ECE7401F0C083C082E0FFC8EEC827
:10061000088002C333D8FCD082D083F0EEB4050644
:10062000902EC97420F0EE6406600302169F9004B9
:10063000A2E0FFB40107902EC974328009EFB40222
:100640000C902EC974281212B174808040EFB4034C
:1006500007902EC974308045EFB4040C1214DD7479
:10066000821212B474408052EFB4050C902EC974FB
:10067000201212B174F08042EFB40618902EC974A3
:100680002AF0902E4E7401F0902EC374C0F0A37423
:1006900004F0802BEFB40710902EC97420F0902E38
:1006A0004E74081212CC8012EFB40813902EC97445
:1006B00031F0902E4E74021212CCF0A37403F0EEBF
:1006C000640760030217329004A2E0FFB4010890AF
:1006D0002EC97420021724EFB40210902EC9742A78
:1006E000F0740112129274C002172DEFB403097452
:1006F0003012128C74608055EFB4040A1214DD7449
:10070000821212C98047EFB40509742012128C744A
:1007100040803AEFB4060D902EC97431F074021285
:1007200012C98029EFB40713902EC97432F0902EAD
:100730004F7404F0902EC374708012EFB4081390BD
:100740002EC97428F0902E4F74041212CCF0A374AA
:1007500003F0902EC074C2F0E49004A3F090000166
:10076000742EF0A3E4F09004A1E024E81214B3E0A6
:100770009004A4F012310EE5E220E20C9004A3E014
:1007800004F0E0C394C840D553E2FB1214A79004D0
:10079000A4E0FD75F002A4FFAEF0900002E02FF09F
:1007A000900001E03EF0ED901C6F93FF900001E49B
:1007B00075F00212261B85F082F5831212FDEF12EE
:1007C00011D9C083C0829004A2E0D082D0831210DD
:1007D00081ECF0A3EDF09004A1E004F0021562902A
:1007E00004A2E004F002151F90021F7401F0229091
:1007F00004AFEFF0A3EDF09004B37403F0ED7003D9
:100800007402F09004AFE0FF12112AF583C083C098
:10081000829004B0E0FED082D08312106612139C46
:10082000FFEE9CFE9004B1F0A3EFF012361FC3124E
:1008300012BC40030218C5121108C083C082900484
:10084000B0E0FCD082D083121081121391121118E3
:10085000EC1210811213064024121110C083C082C2
:100860009004B0E0FCD082D083121081E4F0A3F0B9
:10087000ED12112A1211F1E475F001802B1213A36D
:1008800050299004AFE0FF121115C083C08290047C
:10089000B0E0FED082D083121081E4F0A3F01211F8
:1008A0002912107E74FFF5F012260512129A12100A
:1008B0004E12129A12333912129A12306CEF7003E0
:1008C0000219D69004B0E0FF9004AFE0FE12126F60
:1008D0001210CFE4F0EF60030219D61212DDF58397
:1008E000E4F00219D69004B0E07029A3E0FEA3E082
:1008F000FF12361FD31212BC40091212661210CF1B
:100900007401F0121A0F40239004AFE075F09A12B0
:1009100012E18012121A0F4012121266F583E5825C
:100920002FF582E43583F5837401F0121108C0833A
:10093000C0829004B0E0FCD082D0831210811213E8
:10094000911211181211F3E0FEA3E0FFD39464EEAC
:10095000648094804023121110C083C0829004B040
:10096000E0FCD082D083121081121364ED12112D9D
:100970001211F1E475F0018031C3EF949CEE6480B4
:10098000947F50299004AFE0FF121115C083C082FC
:100990009004B0E0FED082D083121081E4F0A3F086
:1009A00012112912107E74FFF5F0122605C390046F
:1009B000B1E064809480503212129A123302121203
:1009C0009A123019EF60299004AF1211FDC083C054
:1009D000829004B0E0FED082D083121081121124E4
:1009E00012107EECF0A3EDF0800612129A12104E57
:1009F00012129A12358B9004AFE0FF12112AF58380
:100A0000C083C0829004B0E0FED082D08312106612
:100A1000E0FEA3E09004AF1211BBC083C08290043B
:100A2000B0E0D082D083121081EEF0A3EFF02290DC
:100A300004B1E0FEA3E0FF12361F9004B3E0FDD343
:100A4000EF9D7480F86E98227F05123292EF600A53
:100A5000E4900410F07F051235C590022AE024FED0
:100A6000601B147003021B01147003021BC02403DB
:100A70006003021C3512138AE49002E3F090022A0C
:100A80007403F09002E6E064016003021AFEF09045
:100A90000226E0FD7020C28A1213B8900014E060B4
:100AA00009E4F0900418E04409F0900372E0600655
:100AB000E4F0121509F0ED64016003021C35121315
:100AC000B8900014E0FF7009900372E07003021CFC
:100AD00035EF6012900372E0600C121212F0900475
:100AE00018E044058034900014E06012900372E036
:100AF000700C121213F0900418E04401801C900056
:100B000014E06003021C35900372E07003021C3590
:100B1000121212F0900418E04404F0C28A22022A51
:100B2000C912151A90021FE07003021B999002E38C
:100B3000E004F0E49004A0F0900013E0FF9004A023
:100B4000E0C39F5074E4FF9004A0E0FE1211D6129F
:100B500012F6EE12112DF58312142E9004A0E0FE71
:100B60001211D61212F6EE12120212142E0FEFB458
:100B700009D59004A0E0FF1210F9E4F0A3F0EF1201
:100B8000123D7404F0A3E4F0EFB40110E4900422E9
:100B9000F0A3F09004267404F0E4A3F0EFB4021084
:100BA000E4900424F0A3F09004287404F0E4A3F08B
:100BB0009004A0E004F0021B189002E3E0C3940349
:100BC0005003021C35900012747EF0E4900220F075
:100BD0009002E3F07F0E1235D490022A7404F022C2
:100BE000900498E0B4020B7403F07F041235C51230
:100BF0003488900498E0B403107F04123292EF60BE
:100C0000087F041235C512138512310E12151A12FF
:100C1000310E90021FE0603D121E1FE49004A0F010
:100C2000900013E0FE9004A0E0FFC39E5019123222
:100C30001D1231DD9004A0E0FF122C5712310E90EE
:100C400004A0E004F080D91234331229A9122382BF
:100C500090022AEFF0223F3F3F3F3F3F3F3F3F00A0
:100C60003200321770012C02580064025800040050
:100C70001E000A000A000F0064000A000C000C00AD
:100C80000000000000000000000000000101010D54
:100C90000E0F030405060708090A0B0C00010200E9
:100CA00032003200320032003200320032003200B4
:100CB00032003200320032003200320032003200A4
:100CC000370037003700370037003700370037006C
:100CD000370037003700370037003700370037005C
:100CE00028002800280028002800280028002800C4
:100CF00028002800280028002800280028002800B4
:100D00002D002D002D002D002D002D002D002D007B
:100D10002D002D002D002D002D002D002D002D006B
:100D20005000500050005000500050005000500043
:100D30005000500050005000500050005000500033
:100D400055005500550055005500550055005500FB
:100D500055005500550055005500550055005500EB
:100D60004600460046004600460046004600460053
:100D70004600460046004600460046004600460043
:100D80002D002D002D002D002D002D002D002D00FB
:100D90002D002D002D002D002D002D002D002D00EB
:100DA000C800C800C800C800C800C800C800C80003
:100DB000C800C800C800C800C800C800C800C800F3
:100DC000CD00CD00CD00CD00CD00CD00CD00CD00BB
:100DD000CD00CD00CD00CD00CD00CD00CD00CD00AB
:100DE000BE00BE00BE00BE00BE00BE00BE00BE0013
:100DF000BE00BE00BE00BE00BE00BE00BE00BE0003
:100E00002D002D002D002D002D002D002D002D007A
:100E10002D002D002D002D002D002D002D002D006A
:100E2000FA00FA00FA00FA00FA00FA00FA00FA00F2
:100E3000FA00FA00FA00FA00FA00FA00FA00FAE4FE
:100E40009004A2F09004A2E0FDC394095023E0FFB7
:100E500075F0021211D9E0FAA3E0FB75F002EF126F
:100E60001202EAF0A3EBF0E4FF1217CF1214EE80A7
:100E7000D3E49004A1F0900013E0FF9004A1E0C33C
:100E80009F4003021FFF12132FE4F0A3F012134B35
:100E9000E4F0A3F0EF7003021FF6E49004A2F090D8
:100EA00004A2E0FDC3940950189004A1E0FF1220B1
:100EB000059004A1E0FFA3E0FD1221D11214EE8001
:100EC000DEE49004A2F09004A2E0FFC39409400382
:100ED000021F99749F2F12134060189004A1E075AF
:100EE000F09A1212E1F583E0640160079002E7E0F6
:100EF000B401199004A11211C1C083C0829004A250
:100F0000E0D082D083121081E4F0A3F09004A2E03C
:100F1000FF7003021F939004A1E0FE1211C275F04E
:100F200002EF12267FE0FCA3E0C39403EC648094FC
:100F300080501A75F09AEE1211C5C083C0829004D9
:100F4000A2E0D082D083121081E4F0A3F09004A13B
:100F5000E0FF12112AF583C083C0829004A2E0FE54
:100F6000D082D083121081E0FCA3E0FD12134BEC81
:100F70008DF01226059004A1E0FF75F09AA4246973
:100F8000F582E5F0340012107E121124F583C0833F
:100F9000C0829004A2E0D082D083121081E0FEA330
:100FA000E02DFFEE3CFE9004A1E0121331EE8FF035
:100FB0001226051214EE021EA69004A112132FE0B1
:100FC000FCA3E0FDEF12116EECF0A3EDF09004A194
:100FD000E0FF12134CE0FCA3E01211B4121324EC56
:100FE000F0A3EDF09004BAE0602C9004A1E0B4010D
:100FF0000F12116EE0FFA3E09002E1CFF0A3EFF03B
:101000009004A1E0B4020F12116EE0FFA3E0900281
:1010100027CFF0A3EFF09004A1E004F0021E56E405
:1010200090021FF0229004AFEFF0A3EDF09004B314
:101030007407F0ED603F90009FE06401700280084B
:101040009004B012133D702D1211D1C083C0829054
:1010500004B0E0FED082D0831210661214E41212A3
:101060002DC083C0829004B0E0D082D08312108162
:10107000E4F0A3F0229004AF1211FDC083C082906F
:1010800004B0E0FED082D0831210811212FDEFA4D2
:101090002433F582E5F0340012107E12139CFFEE2B
:1010A0009CFE9004B1F0A3EFF012361F9004B3E061
:1010B000FDC31212C1400302215A1210B9E06401AB
:1010C000703775F09AEE1211C5EF1211F4E0FEA31D
:1010D000E0C3941EEE6480948040030221A01211AC
:1010E000D1C083C0829004B0E0FED082D0831210C1
:1010F00066ECF0A3EDF00221A09004B1E0FEA3E0C5
:10110000FF121228C083C0829004B0E0FCD082D0CD
:1011100083121081EE8FF0122605ED1211E51213E5
:10112000064029121228C083C0829004B0E0FCD08F
:1011300082D083121081121364EDA42445F582E558
:10114000F034001211F1E475F00180281213A3505D
:101150006F9004AFE0FF12122DC083C0829004B0E4
:10116000E0FED082D083121081E4F0A3F01210715F
:1011700074FFF5F01226050221A01211D1C083C020
:10118000829004B0E0FED082D0831210661214E484
:10119000FF1211C2C083C0829004B0E0FED082D0A2
:1011A00083121081E0FCA3E0C3941EEC6480948061
:1011B000400E75F09AEF1213F82E1210D47401F04D
:1011C0001210B9E06401702812127E1210CFE004F0
:1011D00012127D1210CFE0D3940540149004B0E0B9
:1011E000FF75F09AEE1210C612127C1210CFE4F0C6
:1011F000229004AFEFF0A3EDF09004B37407F0ED8C
:1012000070037404F09002E7E064017002801290B1
:10121000009FE06401700280089004B012133D70DA
:10122000381211FAC083C0829004B0E0FED082D0A0
:101230008312108112112412107EECF0A3EDF090B5
:1012400004AF1211C1C083C0829004B0E0D082D03C
:1012500083121081E4F0A3F0229004AFE0FF12119A
:101260002AF583C083C0829004B0E0FED082D08390
:1012700012106612139CFFEE9C9004B1F0A3EFF0E5
:101280009004AF1214C7E06007E49004B1F0A3F03B
:101290009004B1E0FEA3E0FF12361F9004B3E0FD1E
:1012A000C31212C140030223119004B1E0FEA3E077
:1012B000FF9004AF121113C083C0829004B0E0FC11
:1012C000D082D0831210811213911211181211F3CF
:1012D00012130640269004AF121113C083C08290EF
:1012E00004B0E0FCD082D083121081121364ED129E
:1012F000112D1211F1E475F001802B1213A3502966
:101300009004AFE0FF121115C083C0829004B0E0DA
:10131000FED082D083121081E4F0A3F012112912C2
:10132000107E74FFF5F01226051213EF12104E8096
:1013300038C39004B1E064809480502D1213EF12F2
:1013400033021213EF123019EF601E1211FAC0832C
:10135000C0829004B0E0FED082D0831210811211BE
:101360002412107EECF0A3EDF09004AFE0FF121118
:101370002AF583C083C0829004B0E0FED082D0837F
:10138000121066E0FEA3E09004AF1211BBC083C050
:10139000829004B0E0D082D083121081EEF0A3EFEF
:1013A000F02290022AE0640270309002E604F0908D
:1013B000049BE0B4010890040F7401F08005E490F0
:1013C000040FF0900416E0B401089000007401F0DE
:1013D0008005E4900000F07F0222E4FE900013E01C
:1013E000FFEEC39F40030225211212EBE06401606F
:1013F0000302251D74132E1212A9E0FC60030224BF
:101400006C1213B8EE6401703A9002E5E0FD6401DD
:10141000701B9002E4E0900418B40109E044091242
:10142000121104801512120E1214FF8016ED900492
:1014300018B4020BE04405121211121406800412B3
:10144000120EF0EE640260030225109002E5E0FD4A
:101450006401701C9002E4E0900418B401061213B9
:1014600014E48021E044041212111214FF0225102A
:10147000ED900418B40205E044058003E04404F054
:10148000E4900014F0900372F0022510EC64016007
:10149000030225101213B8EE640170499002E4E0D3
:1014A000FFB402081215091213178013EF640170BC
:1014B0002690021EE0900418B4010C121314E4905C
:1014C0000372121406801EE04402121317E4900304
:1014D00072F01213C1800E900418E0440212131728
:1014E000E4900372F0EE640270469002E4E0B4020D
:1014F00010121509F09003727401F0900014F0803E
:101500002F90021DE06401701C9002E5E090041829
:10151000B40105E044098013E0440812121104F0FC
:101520001213C0800B900418E0440812121104F04A
:101530001212EBE4F0900498E07002C28A0E0223CB
:10154000BC7F0422BB010689828A83E0225002E725
:1015500022BBFE02E32289828A83E49322BB010C30
:10156000E58229F582E5833AF583E0225006E925F4
:1015700082F8E622BBFE06E92582F8E222E582290E
:10158000F582E5833AF583E49322BB010689828ADA
:1015900083F0225002F722BBFE01F322F8BB010DBB
:1015A000E58229F582E5833AF583E8F0225006E9E1
:1015B0002582C8F622BBFE05E92582C8F222EF8DFE
:1015C000F0A4A8F0CF8CF0A428CE8DF0A42EFE229B
:1015D000BC000BBE0029EF8DF084FFADF022E4CCFF
:1015E000F875F008EF2FFFEE33FEEC33FCEE9DECC8
:1015F000984005FCEE9DFE0FD5F0E9E4CEFD22ED0E
:10160000F8F5F0EE8420D21CFEADF075F008EF2F57
:10161000FFED33FD4007985006D5F0F222C398FD48
:101620000FD5F0EA22C5F0F8A3E028F0C5F0F8E500
:1016300082158270021583E038F022A3F8E0C5F02D
:1016400025F0F0E582158270021583E0C838F0E8D5
:1016500022EB9FF5F0EA9E42F0E99D42F0E89C45BE
:10166000F022ECF0A3EDF0A3EEF0A3EFF022A882BD
:101670008583F0D083D082122665122665122665F6
:10168000122665E473E493A3C583C5F0C583C8C57A
:1016900082C8F0A3C583C5F0C583C8C582C822A48B
:1016A0002582F582E5F03583F58322EF4E6012EF57
:1016B00060010EEDBB010B89828A83F0A3DFFCDEA3
:1016C000FA2289F05007F709DFFCA9F022BBFEFCE3
:1016D000F309DFFCA9F02290049CE06006900498D6
:1016E000E004F0900498E0B4010BE490049CF090C6
:1016F0000498E004F0900498E0B40320D39002250D
:10170000E09464900224E09400500E900387E094EB
:1017100064900386E09400400312138590049BE0DC
:10172000640170589004A1F012135840030228126B
:10173000E0FF25E0249FF582E4341C121137FF25D9
:10174000E0247FF582E4341C1211AC12136C1211E8
:101750004DFF25E024BFF582E4341C1211AC1213B6
:101760007512114DFF25E024DFF582E4341C1211BF
:10177000AC1213CA12114D04F0022708900416E0AF
:10178000640170589004A1F0121358504CE0FF25EA
:10179000E0249FF582E4341D121137FF25E0247FF9
:1017A000F582E4341D1211AC12136C12114DFF2599
:1017B000E024BFF582E4341D1211AC12137512112E
:1017C0004DFF25E024DFF582E4341D1211AC121325
:1017D000CA12114D04F0022768022812E49004A1F5
:1017E000F0121358504CE0FF25E0241FF582E4343A
:1017F0001D121137FF25E024FFF582E4341C12117D
:10180000AC12136C12114DFF25E0243FF582E43435
:101810001D1211AC12137512114DFF25E0245FF556
:1018200082E4341D1211AC1213CA12114D04F002DD
:1018300027C1900203A3E090041CF0900419E0B4C7
:10184000AA03122EF8900434E0B4100E900433E092
:101850007008F0A37410F01230BF22C0E0C083C043
:1018600082C0D0E8C0E0E9C0E0EAC0E0EBC0E0EF51
:10187000C0E0D2AFE5DB30E415E5DB30E1028022E9
:10188000900417E5DFF0900499E4F002298EE5DB7F
:1018900030E505900413803EE5DB30E12CE5DB30DC
:1018A000E01190049D12337312337C12253DF5DF55
:1018B00002298E90049AE06401600302298E308A26
:1018C0000302298ED28A02298E900499E0700DA31A
:1018D000E5DFF09004997401F002298E90049AE0FB
:1018E000902E1093FFB4FF0F900417E5DFF09004E3
:1018F0009AE004F0022988EF640F702F90049D1283
:10190000337390049AE0FF12339A540F12256A90B1
:10191000049D12337390049AE0FF04F012339AFF8F
:10192000E5DF54F04F12256A02298890049D123396
:101930007312337CE5DF12257C90049AE0FF641477
:101940007044E5DFB42025900410E06004E4F080EA
:101950000B90049C7401F0900498E4F090049B7444
:1019600001F0900416E4F090023B04F0E5DFB410BF
:101970001590049CE4F0900498F0900416F0900404
:101980009BF090023BF0EFB4161EE5DFB4200B9005
:1019900004167401F090049BE4F0E5DFB4100990A4
:1019A0000416E4F090049BF0900415E004F075DB5D
:1019B000FFD0E0FFD0E0FBD0E0FAD0E0F9D0E0F8D3
:1019C000D0D0D082D083D0E0329004A1747EF0E4F5
:1019D000A3F0900013E0FE9004A2E0FFC39E40033A
:1019E000022ABA1233D3EF60031213C01212A3E01B
:1019F00070791214F512136C1213ADEF1210FC1261
:101A0000139CEE9C40409004A2E09004A1F01212BE
:101A1000A77401F090021DE004F09002E4F090043D
:101A2000A2E0FF24191212EE7401F01235E39004C3
:101A3000A2E0FF1235F29004A2E0FF1234F6900407
:101A4000A2E0FF1210209004A2E0FF1233A3EF6087
:101A5000089004A21214C7E4F09004A2E0FF12342C
:101A600003EF606DE490021E022AAC1214F512130B
:101A7000751213ADEF1210FC12139CEE9C401790E0
:101A800004A2E09004A1F0123155EF604412138AD1
:101A90001212A3E4F0229004A2E0FF1212A7E4F0D5
:101AA0001236109004A2E0FF1234D49004A2E0FF9A
:101AB0001236019004A2E0FF1235189004A2E0242F
:101AC000191212EE7401F090021EE004F09002E58B
:101AD000F09004A2E004F00229B29004A1E0FF908B
:101AE0000222E06F6002EFF0227E027F0F7D007B1A
:101AF000017A00791512268B12319B90040FE09029
:101B0000042B70057410F080037420F0900000E046
:101B100090042D70057410F080037420F01226B725
:101B2000E4FE900013E0FFEEC39F4003022B92E41B
:101B3000FC75F09AEE1211181211F3121364EE12E2
:101B40001272F583E5822C1210D4E4F0EE1211E546
:101B5000121364EE1213F82C1210D412127CF583B7
:101B6000E5822C1210D4E4F0CFEECFCDECCD1210E4
:101B70004E12358B0CEC640970B71212DDF583E45C
:101B8000F0CFEECF1235E31236011235F2123610D5
:101B900074132E1212A9E4F01212EBE4F090021C5E
:101BA000747EF0E4A3F0A3F09002E4F0A3F00E0240
:101BB0002B02900222747EF0900012F0E490022139
:101BC000F022E49004A2F0FF9004A1F0EF14601E54
:101BD00014603514604C14605B240470749004A38A
:101BE0007401F0A3742FF0A37458F0022C2B12335D
:101BF0007090000112253DFED3941F4003123389DB
:101C00001225246E704B804312337090000212250F
:101C10003DFED3940640031233891225246E7031A1
:101C2000802912337090000312253DFE1225246E88
:101C3000701F801712337090000412253DFE648BD4
:101C400060031233891225246E70069004A1E0040B
:101C5000F00FEF64056003022BAC9004A1E0B40523
:101C600004A37401F09004A2E0FD600790042CE04E
:101C7000547FF0CFEDCF22CBEFCB12131FE0FEA3AA
:101C8000E0FF12116DE0FCA3E0C39FEC9E402C121C
:101C9000116DE0FEA3E0FF12123CEEF0A3EFF01294
:101CA000131FE0FEA3E0FF12116DE0FCA3E0C39F51
:101CB000FFEC9E1210F7EEF0A3EFF0EB6401702A38
:101CC0001210F81214BB40081210DCEEF0A3EFF073
:101CD0001210F8121427900422F0EDA3F012123C17
:101CE000121427900426F0EDA3F0EB6402702A1280
:101CF00010F81214BB40081210DCEEF0A3EFF01243
:101D000010F8121427900424F0EDA3F012123C12E4
:101D10001427900428F0EDA3F022758A50538AEF1F
:101D20009004B87411F09004B77422F09004B97460
:101D300033F075997F759A80E4FFFEC29620970A6A
:101D4000D296309705E49004B8F00FBF00010EEF73
:101D5000640A4E70E67590FF75993F759AC0E4FE6F
:101D6000FF2097069004B77427F020960C9004B7D4
:101D70007426F02097037428F00FBF00010EEF6463
:101D80000A4E70DDE4F5AD75AEE075AF19F5AC75D2
:101D900089FF75913E75991FF59675931CF59BF516
:101DA00095F592F59A75800CD28A9004BA04F022C7
:101DB000023259E493A3F8E493A34003F68001F2BE
:101DC00008DFF48029E493A3F85407240CC8C33334
:101DD000C4540F4420C8834004F456800146F6DF03
:101DE000E4800B0102040810204080902E90E47ED5
:101DF000019360BCA3FF543F30E509541FFEE493F8
:101E0000A360010ECF54C025E060A840B8E493A3BE
:101E1000FAE493A3F8E493A3C8C582C8CAC583CAE9
:101E2000F0A3C8C582C8CAC583CADFE9DEE780BEA1
:101E30000F000000FFFF00000000FFFFFFFFFFFF9B
:101E4000FFFFFF0000000000000000000000000095
:101E50000000000000000000000000000000000082
:101E60000000000000000000000000000000000072
:101E70000000000000000000000000000000000062
:101E80000000000000000000000000000000000052
:101E90000000000000000000000000000000000042
:101EA0000000000000000000000000000000000032
:101EB0004102E300410229004102E6004100140012
:101EC0004103720041040F0041000000410226015D
:101ED0004202240000420386000041023B0041020E
:101EE0002B004102E7004104990041049A0042049A
:101EF0001100004104130041041500410414004185
:101F000004171041049C0041049800410410014151
:101F1000049B0041041600009004A27410F0A3E496
:101F2000F0A3743FF0A374FFF0E4FDFCF9900419F2
:101F300074AAF0758A10538AEF0000009004A2E0A2
:101F4000FEA3E0123390FF69F90DBD00010CBC2F18
:101F5000EBBDFFE89004A4E0FEA3E0F5828E83E4ED
:101F6000936970089004197403F08005E4900419D3
:101F7000F0758A50538AEF00000022C0E0C0F0C024
:101F800083C082C0D0E8C0E0ECC0E0EDC0E0EEC0AD
:101F9000E0EFC0E0D2AF900229E004F0C3940A4021
:101FA00021E4F0900382E0FCA3E0FDA3E0FEA3E0C7
:101FB0002401FFE43EFEE43DFDE43CFC900382127C
:101FC0002642D0E0FFD0E0FED0E0FDD0E0FCD0E043
:101FD000F8D0D0D082D083D0F0D0E032902EC0E4C0
:101FE000F0902ECB74F7F0902F58E0540F24F0901F
:101FF0002EC8F0902ECC7448F01214DDA3743FF07C
:10200000902E40748112121BF0A3F0A30412121B35
:102010007402F0A3F0902EC67414F0902EC1749048
:10202000F0A37401F0A37480F0A37407F043E310ED
:10203000123557900013EFF0229004B5EDF09004A4
:10204000B4EFF0A3E0FE12124CF583E5822E1210DD
:10205000D4E060359004B4E01213D3C083C0829002
:1020600004B5E0D082D083121414121094901C5145
:1020700012119E40149004B5E0FF9004B4E01212D7
:102080004D1210CFE4F07F01227F00229004B5EDC5
:10209000F09004B4EFF0A3E0FE121259F583E5824C
:1020A0002E1210D4E060359004B4E01213E1C08326
:1020B000C0829004B5E0D082D08312141412109420
:1020C000901C5312119E40149004B5E0FF9004B48C
:1020D000E012125A1210CFE4F07F01227F00227F1B
:1020E000007E10E4FDFC9004A2F0A3F0758A10536A
:1020F0008AEF000000EF123390FB9004A3E02BF076
:102100009004A2E03400F00DBD00010CED7003EC72
:10211000643070E19004A2E0FCA3E0FDEC90043395
:10212000F0EDA3F0758A50538AEF00000022900270
:102130002BE024FE601114602524037037308834AE
:1021400090022B7402F02220882A90022B7403F054
:102150009002E77401F07F0E1235D40234AE7F0E88
:102160001232CAEF600E7F0E1235D4E490022BF0CB
:102170009002E7F0229004A3EFF0E0FF2473121422
:102180009FE0603490023BE06401700EEF12108714
:10219000901C4512119E4020800F9004A3E0121065
:1021A00087901C4B12119E400F9004A3E02473F5FE
:1021B00082E4340312137E227F00227E007F807D22
:1021C000007B017A04791812268BE4900418F0A39E
:1021D0007403F0E4A3F090042A74ABF090042C7420
:1021E0009EF09004B8E090041EF09004B7E09004D4
:1021F0001FF09004B9E0900420F0022BA29004BAE2
:10220000E060399002E1121510500EEF9400EE9448
:102210000340069004B97487F090022712151050FD
:102220000EEF9400EE940340069004B97487F0E436
:102230009004BAF09004B9E090041EF022CBEFCBEA
:10224000EB64017017121159E0900468F012116DDF
:10225000A3E0900469F0ECA3F0EDA3F0EB6402704E
:1022600017121159E090046CF012116DA3E0900464
:102270006DF0ECA3F0EDA3F02275200153A87F12BE
:102280002CFA12346143A88012359F1235B3758D34
:10229000E012353AEF24E0600A2410700AC283C2CB
:1022A000828004D283D2821226B7438D20121A284C
:1022B00080DF9004A1EFF0C3940F502BE0FF248A3D
:1022C00012143BE06021EF1214431210929004A10B
:1022D000121192400F9004A1E0248AF582E43402A6
:1022E00012137E227F00227F00229004A5EFF0C30C
:1022F000940F502BE0FF243C12144FE06021EF12AA
:1023000014571210929004A5121192400F9004A538
:10231000E0243CF582E4340212137E227F00227F07
:1023200000229004B41212D3502E9004B4E0FFEBBC
:1023300012124D1210CFE0701FEB12124D1210CF7F
:1023400012117F1213D3C083C0829004B4E0D082F4
:10235000D083121414122642229004B41212D350C5
:102360002E9004B4E0FFEB12125A1210CFE0701F4F
:10237000EB12125A1210CF12117F1213E1C083C058
:10238000829004B4E0D082D0831214141226422228
:102390009004A3E0FBA3E0FAA3E0F92290049AE002
:1023A000FF04F08F82758300229004A27401F02252
:1023B0002DF582EE3CF583E49322E92FF9E43AFA15
:1023C0000225249004A3EFF0E0FF242C121463E014
:1023D000601EEF12146B121092901C4112119E405D
:1023E0000F9004A3E0242CF582E4340212137E2221
:1023F0007F00229004A3EFF0E0FF2403121477E0A3
:10240000601EEF12147F121092901C4D12119E400C
:102410000F9004A3E02403F582E4340012137E221B
:102420007F00229004A3EFF0E0FF244B12148BE016
:10243000601EEF121493121092901C4D12119E40C8
:102440000F9004A3E0244BF582E4340212137E22A1
:102450007F0022E4FFFE900013E0FDEEC39D501BC1
:10246000EF1210F91213AFEE1210FCE0FAA3E0D352
:102470009DEA9C4003CFEECF0E80DB900223EFF06D
:102480002290049D7401F0A37404F0A37418F0E486
:10249000F5DA75DA4043DA2075D74075DA5843A982
:1024A0000875B80875F80822CBEFCBEBD3940F5022
:1024B0001C748A2B12143BE07013748A2BF582E48F
:1024C000340212117D121443F58312264222CBEFFF
:1024D000CBEBD3940F501C743C2B12144FE07013B1
:1024E000743C2BF582E4340212117D121457F583EB
:1024F000122642221212D5501C742C2B121463E0A7
:102500007013742C2BF582E4340212117D12146BBB
:10251000F583122642221212D5501C74032B12147A
:1025200077E0701374032BF582E4340012117D12EE
:10253000147FF583122642221212D5501C744B2BA5
:1025400012148BE07013744B2BF582E434021211D9
:102550007D121493F58312264222E4FD900413E0C9
:102560006011900418E0FE54F0FDEE540FF0E4907A
:102570000413F0CFEDCF221214A7FFFEEE901C5FE4
:1025800093600974E82F1214B3EEF00F0EEEB4103E
:10259000EB2290038212264E000000007E007F0F87
:1025A0007D007B017A02793C02268BEFD3940350A5
:1025B0000D121259F583E5822D1210D4E4F0227F1A
:1025C000051235C5123488122FBC90022A7401F00E
:1025D000022AC975B28E75B6F9E4F5B743B2014364
:1025E000AA01023572EFD3940F5008748A2F121487
:1025F0003BE4F022EFD3940F5008743C2F12144F99
:10260000E4F022EFD394035008742C2F121463E4E7
:10261000F022EFD39403500874032F121477E4F0E0
:1026200022EFD394035008744B2F12148BE4F02242
:10263000EFD39403500874732F12149FE4F022EE2A
:1026400030E707C3E49FFFE49EFE22000000000085
:10265000000000000000000000000000000000007A
:10266000000000000000000000000000000000006A
:10267000000000000000000000000000000000005A
:10268000000000000000000000000000000000004A
:10301000000000000000000000000000000000EEC2
:00000001FF
